{
  "_format": "hh-sol-artifact-1",
  "contractName": "Auction",
  "sourceName": "contracts/Auction.sol",
  "abi": [
    {
      "inputs": [
        {
          "internalType": "address",
          "name": "_usdc",
          "type": "address"
        }
      ],
      "stateMutability": "nonpayable",
      "type": "constructor"
    },
    {
      "inputs": [],
      "name": "AuctionAlreadyEnded",
      "type": "error"
    },
    {
      "inputs": [],
      "name": "AuctionHasEnded",
      "type": "error"
    },
    {
      "inputs": [],
      "name": "AuctionHasNotEnded",
      "type": "error"
    },
    {
      "inputs": [],
      "name": "AuctionHasNotStarted",
      "type": "error"
    },
    {
      "inputs": [],
      "name": "AuctionInactive",
      "type": "error"
    },
    {
      "inputs": [],
      "name": "AuctionNeedsToEndInFuture",
      "type": "error"
    },
    {
      "inputs": [],
      "name": "AuctionStillActive",
      "type": "error"
    },
    {
      "inputs": [],
      "name": "BidNotHighEnough",
      "type": "error"
    },
    {
      "inputs": [],
      "name": "BidTooLow",
      "type": "error"
    },
    {
      "inputs": [],
      "name": "CannotCancelAuction",
      "type": "error"
    },
    {
      "inputs": [],
      "name": "CannotClaimFunds",
      "type": "error"
    },
    {
      "inputs": [],
      "name": "CannotClaimNFT",
      "type": "error"
    },
    {
      "inputs": [],
      "name": "DoesNotOwnNFT",
      "type": "error"
    },
    {
      "inputs": [],
      "name": "IncorrectTimesGiven",
      "type": "error"
    },
    {
      "inputs": [],
      "name": "InsufficientBalanceToClaim",
      "type": "error"
    },
    {
      "inputs": [],
      "name": "InsufficientBalanceToMove",
      "type": "error"
    },
    {
      "inputs": [],
      "name": "NFTAlreadyClaimed",
      "type": "error"
    },
    {
      "inputs": [],
      "name": "NoFundsToMove",
      "type": "error"
    },
    {
      "inputs": [],
      "name": "OnlyNFTOwnerCanMoveFunds",
      "type": "error"
    },
    {
      "inputs": [],
      "name": "OnlyRegisteredNFT",
      "type": "error"
    },
    {
      "inputs": [],
      "name": "OnlyWalletOrTreasury",
      "type": "error"
    },
    {
      "inputs": [],
      "name": "SellerCannotBid",
      "type": "error"
    },
    {
      "inputs": [],
      "name": "ZeroAddressNotAllowed",
      "type": "error"
    },
    {
      "anonymous": false,
      "inputs": [
        {
          "indexed": false,
          "internalType": "uint256",
          "name": "auctionID",
          "type": "uint256"
        }
      ],
      "name": "AuctionCancelled",
      "type": "event"
    },
    {
      "anonymous": false,
      "inputs": [
        {
          "indexed": false,
          "internalType": "address",
          "name": "owner",
          "type": "address"
        },
        {
          "indexed": false,
          "internalType": "uint256",
          "name": "startTime",
          "type": "uint256"
        },
        {
          "indexed": false,
          "internalType": "uint256",
          "name": "endTime",
          "type": "uint256"
        },
        {
          "indexed": false,
          "internalType": "uint256",
          "name": "tokenID",
          "type": "uint256"
        },
        {
          "indexed": false,
          "internalType": "uint256",
          "name": "reservePrice",
          "type": "uint256"
        }
      ],
      "name": "AuctionCreated",
      "type": "event"
    },
    {
      "anonymous": false,
      "inputs": [
        {
          "indexed": false,
          "internalType": "uint256",
          "name": "auctionId",
          "type": "uint256"
        },
        {
          "indexed": false,
          "internalType": "uint256",
          "name": "amount",
          "type": "uint256"
        }
      ],
      "name": "BidPlaced",
      "type": "event"
    },
    {
      "anonymous": false,
      "inputs": [
        {
          "indexed": false,
          "internalType": "address",
          "name": "recipient",
          "type": "address"
        },
        {
          "indexed": false,
          "internalType": "uint256",
          "name": "amount",
          "type": "uint256"
        }
      ],
      "name": "BidderRefundClaimed",
      "type": "event"
    },
    {
      "anonymous": false,
      "inputs": [
        {
          "indexed": false,
          "internalType": "address",
          "name": "walletAddress",
          "type": "address"
        }
      ],
      "name": "DAOWalletAddressSet",
      "type": "event"
    },
    {
      "anonymous": false,
      "inputs": [
        {
          "indexed": false,
          "internalType": "uint256",
          "name": "auctionID",
          "type": "uint256"
        },
        {
          "indexed": false,
          "internalType": "address",
          "name": "recipient",
          "type": "address"
        },
        {
          "indexed": false,
          "internalType": "uint256",
          "name": "tokenID",
          "type": "uint256"
        }
      ],
      "name": "NFTClaimedByOwner",
      "type": "event"
    },
    {
      "anonymous": false,
      "inputs": [
        {
          "indexed": false,
          "internalType": "uint256",
          "name": "auctionID",
          "type": "uint256"
        },
        {
          "indexed": false,
          "internalType": "address",
          "name": "recipient",
          "type": "address"
        },
        {
          "indexed": false,
          "internalType": "uint256",
          "name": "tokenID",
          "type": "uint256"
        }
      ],
      "name": "NFTClaimedByWinner",
      "type": "event"
    },
    {
      "anonymous": false,
      "inputs": [
        {
          "indexed": true,
          "internalType": "address",
          "name": "previousOwner",
          "type": "address"
        },
        {
          "indexed": true,
          "internalType": "address",
          "name": "newOwner",
          "type": "address"
        }
      ],
      "name": "OwnershipTransferred",
      "type": "event"
    },
    {
      "anonymous": false,
      "inputs": [
        {
          "indexed": false,
          "internalType": "address",
          "name": "recepient",
          "type": "address"
        },
        {
          "indexed": false,
          "internalType": "uint256",
          "name": "amount",
          "type": "uint256"
        }
      ],
      "name": "SellerFundsClaimed",
      "type": "event"
    },
    {
      "anonymous": false,
      "inputs": [
        {
          "indexed": false,
          "internalType": "address",
          "name": "treasury",
          "type": "address"
        }
      ],
      "name": "TreasuryAddressSet",
      "type": "event"
    },
    {
      "inputs": [],
      "name": "DAOWallet",
      "outputs": [
        {
          "internalType": "address",
          "name": "",
          "type": "address"
        }
      ],
      "stateMutability": "view",
      "type": "function"
    },
    {
      "inputs": [],
      "name": "USDC",
      "outputs": [
        {
          "internalType": "contract IERC20",
          "name": "",
          "type": "address"
        }
      ],
      "stateMutability": "view",
      "type": "function"
    },
    {
      "inputs": [],
      "name": "auctionCount",
      "outputs": [
        {
          "internalType": "uint256",
          "name": "",
          "type": "uint256"
        }
      ],
      "stateMutability": "view",
      "type": "function"
    },
    {
      "inputs": [
        {
          "internalType": "uint256",
          "name": "",
          "type": "uint256"
        }
      ],
      "name": "auctions",
      "outputs": [
        {
          "internalType": "address",
          "name": "nftOwner",
          "type": "address"
        },
        {
          "internalType": "address",
          "name": "nftContract",
          "type": "address"
        },
        {
          "internalType": "uint256",
          "name": "tokenID",
          "type": "uint256"
        },
        {
          "internalType": "uint256",
          "name": "startTime",
          "type": "uint256"
        },
        {
          "internalType": "uint256",
          "name": "endTime",
          "type": "uint256"
        },
        {
          "internalType": "uint256",
          "name": "reservePrice",
          "type": "uint256"
        },
        {
          "internalType": "bool",
          "name": "isActive",
          "type": "bool"
        }
      ],
      "stateMutability": "view",
      "type": "function"
    },
    {
      "inputs": [
        {
          "components": [
            {
              "internalType": "uint256",
              "name": "auctionID",
              "type": "uint256"
            },
            {
              "internalType": "address",
              "name": "bidder",
              "type": "address"
            },
            {
              "internalType": "uint256",
              "name": "amount",
              "type": "uint256"
            },
            {
              "internalType": "uint256",
              "name": "timestamp",
              "type": "uint256"
            }
          ],
          "internalType": "struct Auction.Bid",
          "name": "_bid",
          "type": "tuple"
        }
      ],
      "name": "bid",
      "outputs": [],
      "stateMutability": "payable",
      "type": "function"
    },
    {
      "inputs": [
        {
          "internalType": "address",
          "name": "",
          "type": "address"
        }
      ],
      "name": "bidderRefundBalance",
      "outputs": [
        {
          "internalType": "uint256",
          "name": "",
          "type": "uint256"
        }
      ],
      "stateMutability": "view",
      "type": "function"
    },
    {
      "inputs": [
        {
          "internalType": "uint256",
          "name": "",
          "type": "uint256"
        },
        {
          "internalType": "address",
          "name": "",
          "type": "address"
        }
      ],
      "name": "bids",
      "outputs": [
        {
          "internalType": "uint256",
          "name": "auctionID",
          "type": "uint256"
        },
        {
          "internalType": "address",
          "name": "bidder",
          "type": "address"
        },
        {
          "internalType": "uint256",
          "name": "amount",
          "type": "uint256"
        },
        {
          "internalType": "uint256",
          "name": "timestamp",
          "type": "uint256"
        }
      ],
      "stateMutability": "view",
      "type": "function"
    },
    {
      "inputs": [
        {
          "internalType": "uint256",
          "name": "auctionID",
          "type": "uint256"
        }
      ],
      "name": "cancelAuction",
      "outputs": [],
      "stateMutability": "nonpayable",
      "type": "function"
    },
    {
      "inputs": [
        {
          "internalType": "uint256",
          "name": "auctionID",
          "type": "uint256"
        },
        {
          "internalType": "address",
          "name": "recipient",
          "type": "address"
        }
      ],
      "name": "claimFunds",
      "outputs": [],
      "stateMutability": "nonpayable",
      "type": "function"
    },
    {
      "inputs": [
        {
          "internalType": "uint256",
          "name": "auctionID",
          "type": "uint256"
        },
        {
          "internalType": "address",
          "name": "recipient",
          "type": "address"
        }
      ],
      "name": "claimNFT",
      "outputs": [],
      "stateMutability": "nonpayable",
      "type": "function"
    },
    {
      "inputs": [
        {
          "internalType": "address",
          "name": "",
          "type": "address"
        }
      ],
      "name": "claimableSellerFunds",
      "outputs": [
        {
          "internalType": "uint256",
          "name": "",
          "type": "uint256"
        }
      ],
      "stateMutability": "view",
      "type": "function"
    },
    {
      "inputs": [
        {
          "internalType": "uint256",
          "name": "",
          "type": "uint256"
        }
      ],
      "name": "claimed",
      "outputs": [
        {
          "internalType": "bool",
          "name": "",
          "type": "bool"
        }
      ],
      "stateMutability": "view",
      "type": "function"
    },
    {
      "inputs": [
        {
          "components": [
            {
              "internalType": "address",
              "name": "nftOwner",
              "type": "address"
            },
            {
              "internalType": "address",
              "name": "nftContract",
              "type": "address"
            },
            {
              "internalType": "uint256",
              "name": "tokenID",
              "type": "uint256"
            },
            {
              "internalType": "uint256",
              "name": "startTime",
              "type": "uint256"
            },
            {
              "internalType": "uint256",
              "name": "endTime",
              "type": "uint256"
            },
            {
              "internalType": "uint256",
              "name": "reservePrice",
              "type": "uint256"
            },
            {
              "internalType": "bool",
              "name": "isActive",
              "type": "bool"
            }
          ],
          "internalType": "struct Auction.Auction",
          "name": "_auction",
          "type": "tuple"
        }
      ],
      "name": "createAuction",
      "outputs": [
        {
          "internalType": "uint256",
          "name": "",
          "type": "uint256"
        }
      ],
      "stateMutability": "nonpayable",
      "type": "function"
    },
    {
      "inputs": [
        {
          "internalType": "uint256",
          "name": "auctionID",
          "type": "uint256"
        }
      ],
      "name": "getAuctionDetails",
      "outputs": [
        {
          "components": [
            {
              "internalType": "address",
              "name": "nftOwner",
              "type": "address"
            },
            {
              "internalType": "address",
              "name": "nftContract",
              "type": "address"
            },
            {
              "internalType": "uint256",
              "name": "tokenID",
              "type": "uint256"
            },
            {
              "internalType": "uint256",
              "name": "startTime",
              "type": "uint256"
            },
            {
              "internalType": "uint256",
              "name": "endTime",
              "type": "uint256"
            },
            {
              "internalType": "uint256",
              "name": "reservePrice",
              "type": "uint256"
            },
            {
              "internalType": "bool",
              "name": "isActive",
              "type": "bool"
            }
          ],
          "internalType": "struct Auction.Auction",
          "name": "",
          "type": "tuple"
        }
      ],
      "stateMutability": "view",
      "type": "function"
    },
    {
      "inputs": [
        {
          "internalType": "uint256",
          "name": "auctionID",
          "type": "uint256"
        },
        {
          "internalType": "address",
          "name": "bidder",
          "type": "address"
        }
      ],
      "name": "getBidDetails",
      "outputs": [
        {
          "components": [
            {
              "internalType": "uint256",
              "name": "auctionID",
              "type": "uint256"
            },
            {
              "internalType": "address",
              "name": "bidder",
              "type": "address"
            },
            {
              "internalType": "uint256",
              "name": "amount",
              "type": "uint256"
            },
            {
              "internalType": "uint256",
              "name": "timestamp",
              "type": "uint256"
            }
          ],
          "internalType": "struct Auction.Bid",
          "name": "",
          "type": "tuple"
        }
      ],
      "stateMutability": "view",
      "type": "function"
    },
    {
      "inputs": [
        {
          "internalType": "address",
          "name": "account",
          "type": "address"
        }
      ],
      "name": "getBidderRefundBalance",
      "outputs": [
        {
          "internalType": "uint256",
          "name": "",
          "type": "uint256"
        }
      ],
      "stateMutability": "view",
      "type": "function"
    },
    {
      "inputs": [
        {
          "internalType": "address",
          "name": "account",
          "type": "address"
        }
      ],
      "name": "getClaimableSellerFunds",
      "outputs": [
        {
          "internalType": "uint256",
          "name": "",
          "type": "uint256"
        }
      ],
      "stateMutability": "view",
      "type": "function"
    },
    {
      "inputs": [
        {
          "internalType": "uint256",
          "name": "auctionID",
          "type": "uint256"
        }
      ],
      "name": "getHighestBidder",
      "outputs": [
        {
          "internalType": "address",
          "name": "",
          "type": "address"
        }
      ],
      "stateMutability": "view",
      "type": "function"
    },
    {
      "inputs": [
        {
          "internalType": "uint256",
          "name": "auctionID",
          "type": "uint256"
        }
      ],
      "name": "isAuctionActive",
      "outputs": [
        {
          "internalType": "bool",
          "name": "",
          "type": "bool"
        }
      ],
      "stateMutability": "view",
      "type": "function"
    },
    {
      "inputs": [
        {
          "internalType": "address",
          "name": "to",
          "type": "address"
        },
        {
          "internalType": "uint256",
          "name": "amount",
          "type": "uint256"
        },
        {
          "internalType": "uint256",
          "name": "depositToAave",
          "type": "uint256"
        }
      ],
      "name": "moveFundsOutOfContract",
      "outputs": [],
      "stateMutability": "nonpayable",
      "type": "function"
    },
    {
      "inputs": [],
      "name": "owner",
      "outputs": [
        {
          "internalType": "address",
          "name": "",
          "type": "address"
        }
      ],
      "stateMutability": "view",
      "type": "function"
    },
    {
      "inputs": [],
      "name": "renounceOwnership",
      "outputs": [],
      "stateMutability": "nonpayable",
      "type": "function"
    },
    {
      "inputs": [
        {
          "internalType": "address",
          "name": "_DAOWallet",
          "type": "address"
        }
      ],
      "name": "setDAOWalletAddress",
      "outputs": [],
      "stateMutability": "nonpayable",
      "type": "function"
    },
    {
      "inputs": [
        {
          "internalType": "address",
          "name": "_treasuryAddress",
          "type": "address"
        }
      ],
      "name": "setTreasuryAddress",
      "outputs": [],
      "stateMutability": "nonpayable",
      "type": "function"
    },
    {
      "inputs": [
        {
          "internalType": "address",
          "name": "newOwner",
          "type": "address"
        }
      ],
      "name": "transferOwnership",
      "outputs": [],
      "stateMutability": "nonpayable",
      "type": "function"
    },
    {
      "inputs": [],
      "name": "treasuryAddress",
      "outputs": [
        {
          "internalType": "address",
          "name": "",
          "type": "address"
        }
      ],
      "stateMutability": "view",
      "type": "function"
    }
  ],
  "bytecode": "0x60806040523480156200001157600080fd5b506040516200213238038062002132833981016040819052620000349162000123565b6200003f33620000d3565b60018055600580546001600160a01b0319166001600160a01b03831690811790915560405163095ea7b360e01b8152306004820152600019602482015263095ea7b3906044016020604051808303816000875af1158015620000a5573d6000803e3d6000fd5b505050506040513d601f19601f82011682018060405250810190620000cb919062000155565b505062000179565b600080546001600160a01b038381166001600160a01b0319831681178455604051919092169283917f8be0079c531659141344cd1fd0a4f28419497f9722a3daafe3b4186f6b6457e09190a35050565b6000602082840312156200013657600080fd5b81516001600160a01b03811681146200014e57600080fd5b9392505050565b6000602082840312156200016857600080fd5b815180151581146200014e57600080fd5b611fa980620001896000396000f3fe6080604052600436106101a15760003560e01c80638da5cb5b116100e1578063c750cb791161008a578063e71f7b1511610064578063e71f7b1514610619578063f20e5e351461064d578063f2fde38b146106d2578063ffcad4cc146106f257600080fd5b8063c750cb7914610583578063dbe7e3bd146105b9578063dfdb5ae4146105f957600080fd5b8063a5c1ca5f116100bb578063a5c1ca5f14610505578063b85c78d114610532578063c5f956af1461056357600080fd5b80638da5cb5b1461046b57806396b5a755146104895780639fc89aed146104a957600080fd5b8063571a26a01161014e5780636e338461116101285780636e338461146103de5780636eef9c78146103fe578063715018a61461041e57806389a302711461043357600080fd5b8063571a26a0146102f357806362432b581461039e5780636605bfda146103be57600080fd5b8063390d68551161017f578063390d6855146102255780633f1ffcec1461024757806347e27d6b146102c657600080fd5b8063130b530e146101a65780632ad71573146101d95780632b3e5a4d146101ef575b600080fd5b3480156101b257600080fd5b506101c66101c1366004611d13565b610705565b6040519081526020015b60405180910390f35b3480156101e557600080fd5b506101c660045481565b3480156101fb57600080fd5b506101c661020a366004611dbd565b6001600160a01b03166000908152600b602052604090205490565b34801561023157600080fd5b50610245610240366004611de1565b61099d565b005b34801561025357600080fd5b5061029e610262366004611de1565b6009602090815260009283526040808420909152908252902080546001820154600283015460039093015491926001600160a01b039091169184565b604080519485526001600160a01b0390931660208501529183015260608201526080016101d0565b3480156102d257600080fd5b506101c66102e1366004611dbd565b600b6020526000908152604090205481565b3480156102ff57600080fd5b5061035c61030e366004611e11565b600660208190526000918252604090912080546001820154600283015460038401546004850154600586015495909601546001600160a01b0394851696939094169491939092919060ff1687565b604080516001600160a01b039889168152979096166020880152948601939093526060850191909152608084015260a0830152151560c082015260e0016101d0565b3480156103aa57600080fd5b506102456103b9366004611de1565b610c5c565b3480156103ca57600080fd5b506102456103d9366004611dbd565b61101e565b3480156103ea57600080fd5b506102456103f9366004611dbd565b61118d565b34801561040a57600080fd5b50610245610419366004611e2a565b61125c565b34801561042a57600080fd5b506102456115a3565b34801561043f57600080fd5b50600554610453906001600160a01b031681565b6040516001600160a01b0390911681526020016101d0565b34801561047757600080fd5b506000546001600160a01b0316610453565b34801561049557600080fd5b506102456104a4366004611e11565b611609565b3480156104b557600080fd5b506104c96104c4366004611de1565b61172e565b6040516101d09190815181526020808301516001600160a01b031690820152604080830151908201526060918201519181019190915260800190565b34801561051157600080fd5b506101c6610520366004611dbd565b600a6020526000908152604090205481565b34801561053e57600080fd5b506101c661054d366004611dbd565b6001600160a01b03166000908152600a60205290565b34801561056f57600080fd5b50600254610453906001600160a01b031681565b34801561058f57600080fd5b5061045361059e366004611e11565b6000908152600860205260409020546001600160a01b031690565b3480156105c557600080fd5b506105e96105d4366004611e11565b60076020526000908152604090205460ff1681565b60405190151581526020016101d0565b34801561060557600080fd5b50600354610453906001600160a01b031681565b34801561062557600080fd5b506105e9610634366004611e11565b6000908152600660208190526040909120015460ff1690565b34801561065957600080fd5b5061066d610668366004611e11565b6117bb565b6040516101d09190600060e0820190506001600160a01b038084511683528060208501511660208401525060408301516040830152606083015160608301526080830151608083015260a083015160a083015260c0830151151560c083015292915050565b3480156106de57600080fd5b506102456106ed366004611dbd565b611880565b610245610700366004611e5f565b611962565b602081015160408083015190516331a9108f60e11b815260048101919091526000919033906001600160a01b03831690636352211e906024016020604051808303816000875af115801561075d573d6000803e3d6000fd5b505050506040513d601f19601f820116820180604052508101906107819190611ed9565b6001600160a01b0316146107c1576040517fcafc4d1e00000000000000000000000000000000000000000000000000000000815260040160405180910390fd5b826080015183606001511115610803576040517fd22dcab600000000000000000000000000000000000000000000000000000000815260040160405180910390fd5b6004805490600061081383611f0c565b9091555050600480546000908152600660208181526040808420885181546001600160a01b039182166001600160a01b0319918216178355938a01516001808401805492909316919095161790558189018051600283015560608a018051600384015560808b018051848a015560a08c018051600586015560c08d0151948801805495151560ff199687161790559854885296849020909501805490921690931790558751925193519151945190517fb0c0552f858e630668cc4c58a1b7d1bd302efa77c15d8ec0f1fe725053c598019561091a95939290916001600160a01b03959095168552602085019390935260408401919091526060830152608082015260a00190565b60405180910390a1825160408085015190516323b872dd60e01b81526001600160a01b0392831660048201523060248201526044810191909152908216906323b872dd90606401600060405180830381600087803b15801561097b57600080fd5b505af115801561098f573d6000803e3d6000fd5b505060045495945050505050565b6000828152600660205260409020600401544211156109d157600082815260066020819052604090912001805460ff191690555b6000828152600660208190526040909120015460ff1615610a0557604051630ca00c6160e01b815260040160405180910390fd5b6000828152600660205260409020546001600160a01b0382811691161415610b16576001600160a01b0381166000908152600b60205260408120805491829190610a4f8380611f27565b90915550506005546040516323b872dd60e01b81523060048201526001600160a01b03848116602483015260448201849052909116906323b872dd906064016020604051808303816000875af1158015610aad573d6000803e3d6000fd5b505050506040513d601f19601f82011682018060405250810190610ad19190611f3e565b50604080516001600160a01b0384168152602081018390527f420c29241c6cb948ca6cc4e142b2b5bbc68111d61a3e8f432d99067a854602bb910160405180910390a1505b6000828152600860205260409020546001600160a01b03828116911614610c2a576001600160a01b0381166000908152600a60205260408120805491829190610b5f8380611f27565b90915550506005546040516323b872dd60e01b81523060048201526001600160a01b03848116602483015260448201849052909116906323b872dd906064016020604051808303816000875af1158015610bbd573d6000803e3d6000fd5b505050506040513d601f19601f82011682018060405250810190610be19190611f3e565b50604080516001600160a01b0384168152602081018390527fb5c1318d583a05f308829184e6d5db9b57b28781d2edbd68f4dacf6e47865ead91015b60405180910390a1505050565b6040517f9954805700000000000000000000000000000000000000000000000000000000815260040160405180910390fd5b600082815260066020526040902060018101546004909101546001600160a01b0390911690421115610ca357600083815260066020819052604090912001805460ff191690555b6000838152600660208190526040909120015460ff1615610cd757604051630ca00c6160e01b815260040160405180910390fd5b6000838152600660205260408082206002015490516331a9108f60e11b815260048101919091526001600160a01b03831690636352211e906024016020604051808303816000875af1158015610d31573d6000803e3d6000fd5b505050506040513d601f19601f82011682018060405250810190610d559190611ed9565b9050826001600160a01b0316816001600160a01b03161415610da3576040517f19ea6a3300000000000000000000000000000000000000000000000000000000815260040160405180910390fd5b6000848152600860205260409020546001600160a01b03908116908416811480610dd557506001600160a01b03811633145b15610ef95760008581526009602090815260408083206001600160a01b0385168452825280832060020154600a9092528220805491928392610e18908490611f27565b9091555050600086815260066020526040908190206002015490516323b872dd60e01b81523060048201526001600160a01b0387811660248301526044820192909252908516906323b872dd90606401600060405180830381600087803b158015610e8257600080fd5b505af1158015610e96573d6000803e3d6000fd5b5050506000878152600660209081526040918290206002015482518a81526001600160a01b038a16928101929092528183015290517f32f1a4ffa047c2c1d07892fc4b7003b2133a1379307ea75ad9c1062f46beec0e92509081900360600190a1505b6000858152600660205260409020546001600160a01b0385811691161480610f3757506000858152600660205260409020546001600160a01b031633145b1561101757600085815260066020526040908190206002015490516323b872dd60e01b81523060048201526001600160a01b0386811660248301526044820192909252908416906323b872dd90606401600060405180830381600087803b158015610fa157600080fd5b505af1158015610fb5573d6000803e3d6000fd5b5050506000868152600660209081526040918290206002015482518981526001600160a01b038916928101929092528183015290517fe80e3998569c2cdac1ffe3cf3c84c396ba4691fb4ea67f5665598aac82fea7a892509081900360600190a15b5050505050565b6000546001600160a01b0316331461107d5760405162461bcd60e51b815260206004820181905260248201527f4f776e61626c653a2063616c6c6572206973206e6f7420746865206f776e657260448201526064015b60405180910390fd5b6001600160a01b0381166110a4576040516342bcdf7f60e11b815260040160405180910390fd5b600280546001600160a01b0319166001600160a01b038381169182179092556005546040517f095ea7b3000000000000000000000000000000000000000000000000000000008152600481019290925260001960248301529091169063095ea7b3906044016020604051808303816000875af1158015611128573d6000803e3d6000fd5b505050506040513d601f19601f8201168201806040525081019061114c9190611f3e565b506040516001600160a01b03821681527f5cc4bdb402e519d4921d6bfaca9c17c16ea3a8e658ff5accd29e6080635562ce906020015b60405180910390a150565b6000546001600160a01b031633146111e75760405162461bcd60e51b815260206004820181905260248201527f4f776e61626c653a2063616c6c6572206973206e6f7420746865206f776e65726044820152606401611074565b6001600160a01b03811661120e576040516342bcdf7f60e11b815260040160405180910390fd5b600380546001600160a01b0319166001600160a01b0383169081179091556040519081527f99e7e8f551bb4a95839337c445d25c103e8b923f563ec440667dd5c1bb5fa32990602001611182565b6000546001600160a01b031633146112b65760405162461bcd60e51b815260206004820181905260248201527f4f776e61626c653a2063616c6c6572206973206e6f7420746865206f776e65726044820152606401611074565b6002546001600160a01b03848116911614806112df57506003546001600160a01b038481169116145b61132b5760405162461bcd60e51b815260206004820152601460248201527f4f6e6c7957616c6c65744f7254726561737572790000000000000000000000006044820152606401611074565b6003546001600160a01b0384811691161415611466576004546000908152600660209081526040808320546001600160a01b03168352600b909152902054806113875760405163cd7e0f9160e01b815260040160405180910390fd5b808311156113a857604051635c75275b60e11b815260040160405180910390fd5b6004546000908152600660209081526040808320546001600160a01b03168352600b909152812080548592906113df908490611f27565b90915550506005546003546040516323b872dd60e01b81523060048201526001600160a01b039182166024820152604481018490529116906323b872dd906064016020604051808303816000875af115801561143f573d6000803e3d6000fd5b505050506040513d601f19601f820116820180604052508101906114639190611f3e565b50505b6002546001600160a01b038481169116141561159e576004546000908152600660209081526040808320546001600160a01b03168352600b909152902054806114c25760405163cd7e0f9160e01b815260040160405180910390fd5b808311156114e357604051635c75275b60e11b815260040160405180910390fd5b6004546000908152600660209081526040808320546001600160a01b03168352600b9091528120805485929061151a908490611f27565b90915550506005546002546040516323b872dd60e01b81523060048201526001600160a01b039182166024820152604481018490529116906323b872dd906064016020604051808303816000875af115801561157a573d6000803e3d6000fd5b505050506040513d601f19601f820116820180604052508101906110179190611f3e565b505050565b6000546001600160a01b031633146115fd5760405162461bcd60e51b815260206004820181905260248201527f4f776e61626c653a2063616c6c6572206973206e6f7420746865206f776e65726044820152606401611074565b6116076000611ca0565b565b6000818152600660205260409020546001600160a01b03163314611659576040517f3755399700000000000000000000000000000000000000000000000000000000815260040160405180910390fd5b6000818152600660208190526040909120015460ff1661168c57604051631ea9e47360e11b815260040160405180910390fd5b60008181526006602052604090206004015442106116bd57604051631ea9e47360e11b815260040160405180910390fd5b6000818152600660208181526040808420909201805460ff191690556008815281832054600982528284206001600160a01b03909116808552908252928290206002015491518481527f2809c7e17bf978fbc7194c0a694b638c4215e9140cacc6c38ca36010b45697df9101610c1d565b61176260405180608001604052806000815260200160006001600160a01b0316815260200160008152602001600081525090565b5060008281526009602090815260408083206001600160a01b0380861685529083529281902081516080810183528154815260018201549094169284019290925260028201549083015260030154606082015292915050565b61180f6040518060e0016040528060006001600160a01b0316815260200160006001600160a01b03168152602001600081526020016000815260200160008152602001600081526020016000151581525090565b50600090815260066020818152604092839020835160e08101855281546001600160a01b039081168252600183015416928101929092526002810154938201939093526003830154606082015260048301546080820152600583015460a082015291015460ff16151560c082015290565b6000546001600160a01b031633146118da5760405162461bcd60e51b815260206004820181905260248201527f4f776e61626c653a2063616c6c6572206973206e6f7420746865206f776e65726044820152606401611074565b6001600160a01b0381166119565760405162461bcd60e51b815260206004820152602660248201527f4f776e61626c653a206e6577206f776e657220697320746865207a65726f206160448201527f64647265737300000000000000000000000000000000000000000000000000006064820152608401611074565b61195f81611ca0565b50565b600260015414156119b55760405162461bcd60e51b815260206004820152601f60248201527f5265656e7472616e637947756172643a207265656e7472616e742063616c6c006044820152606401611074565b60026001558051600081815260066020526040902060040154421115611a07576040517fdda144a500000000000000000000000000000000000000000000000000000000815260040160405180910390fd5b6000818152600660208190526040909120015460ff16611a3a57604051631ea9e47360e11b815260040160405180910390fd5b600081815260086020908152604080832054600983528184206001600160a01b039091168085529252918290206002015491840151909190811115611a9257604051635069375b60e11b815260040160405180910390fd5b6000838152600660205260409081902060050154908501511015611ac957604051635069375b60e11b815260040160405180910390fd5b6000838152600660205260409020546001600160a01b0316331415611b1a576040517fef02588900000000000000000000000000000000000000000000000000000000815260040160405180910390fd5b6020848101805160008681526009845260408082206001600160a01b0380851684529086528183208a51815594516001860180546001600160a01b031990811692909316919091179055818a018051600287015560608b0151600390960195909555888352600886528183208054339216821790559351938252600a909452928320805491939091611bad908490611f5b565b909155505060408581018051600087815260066020908152848220546001600160a01b039081168352600b9091529084902091909155600554915192516323b872dd60e01b8152336004820152306024820152604481019390935216906323b872dd906064016020604051808303816000875af1158015611c32573d6000803e3d6000fd5b505050506040513d601f19601f82011682018060405250810190611c569190611f3e565b50604080860151815186815260208101919091527f0fc69407039e8ba8cdd517e2a4cae9dd19697b0a500ff37a2425c59ebc649b31910160405180910390a1505060018055505050565b600080546001600160a01b038381166001600160a01b0319831681178455604051919092169283917f8be0079c531659141344cd1fd0a4f28419497f9722a3daafe3b4186f6b6457e09190a35050565b6001600160a01b038116811461195f57600080fd5b801515811461195f57600080fd5b600060e08284031215611d2557600080fd5b60405160e0810181811067ffffffffffffffff82111715611d5657634e487b7160e01b600052604160045260246000fd5b6040528235611d6481611cf0565b81526020830135611d7481611cf0565b8060208301525060408301356040820152606083013560608201526080830135608082015260a083013560a082015260c0830135611db181611d05565b60c08201529392505050565b600060208284031215611dcf57600080fd5b8135611dda81611cf0565b9392505050565b60008060408385031215611df457600080fd5b823591506020830135611e0681611cf0565b809150509250929050565b600060208284031215611e2357600080fd5b5035919050565b600080600060608486031215611e3f57600080fd5b8335611e4a81611cf0565b95602085013595506040909401359392505050565b600060808284031215611e7157600080fd5b6040516080810181811067ffffffffffffffff82111715611ea257634e487b7160e01b600052604160045260246000fd5b604052823581526020830135611eb781611cf0565b6020820152604083810135908201526060928301359281019290925250919050565b600060208284031215611eeb57600080fd5b8151611dda81611cf0565b634e487b7160e01b600052601160045260246000fd5b6000600019821415611f2057611f20611ef6565b5060010190565b600082821015611f3957611f39611ef6565b500390565b600060208284031215611f5057600080fd5b8151611dda81611d05565b60008219821115611f6e57611f6e611ef6565b50019056fea2646970667358221220c419ed98f5f6cfd2960e9ec7a1ea2ff8f76e2f092635865e4f2696878087432064736f6c634300080b0033",
  "linkReferences": {},
  "deployedLinkReferences": {}
}